{
  "address": "0xD4136b8E50ED9a561D69a87E95099aaF56476200",
  "abi": [
    {
      "inputs": [],
      "stateMutability": "nonpayable",
      "type": "constructor"
    },
    {
      "inputs": [],
      "name": "NftClub__CollectionDoesNotExist",
      "type": "error"
    },
    {
      "inputs": [],
      "name": "NftClub__IncorrectPrice",
      "type": "error"
    },
    {
      "inputs": [],
      "name": "NftClub__InvalidCollectionId",
      "type": "error"
    },
    {
      "inputs": [],
      "name": "NftClub__NotOwner",
      "type": "error"
    },
    {
      "anonymous": false,
      "inputs": [
        {
          "indexed": true,
          "internalType": "uint256",
          "name": "collectionId",
          "type": "uint256"
        },
        {
          "indexed": true,
          "internalType": "address",
          "name": "collectionAddress",
          "type": "address"
        },
        {
          "indexed": false,
          "internalType": "string",
          "name": "URI",
          "type": "string"
        }
      ],
      "name": "CollectionCreated",
      "type": "event"
    },
    {
      "anonymous": false,
      "inputs": [
        {
          "indexed": true,
          "internalType": "uint256",
          "name": "collectionId",
          "type": "uint256"
        },
        {
          "indexed": true,
          "internalType": "address",
          "name": "buyer",
          "type": "address"
        }
      ],
      "name": "NftBought",
      "type": "event"
    },
    {
      "inputs": [
        {
          "internalType": "uint256",
          "name": "_collectionId",
          "type": "uint256"
        }
      ],
      "name": "buyNft",
      "outputs": [],
      "stateMutability": "payable",
      "type": "function"
    },
    {
      "inputs": [
        {
          "internalType": "uint256",
          "name": "_collectionId",
          "type": "uint256"
        },
        {
          "internalType": "address",
          "name": "_user",
          "type": "address"
        }
      ],
      "name": "checkNftOwnership",
      "outputs": [
        {
          "internalType": "bool",
          "name": "",
          "type": "bool"
        }
      ],
      "stateMutability": "view",
      "type": "function"
    },
    {
      "inputs": [
        {
          "internalType": "string",
          "name": "_name",
          "type": "string"
        },
        {
          "internalType": "string",
          "name": "_symbol",
          "type": "string"
        },
        {
          "internalType": "uint256",
          "name": "_price",
          "type": "uint256"
        },
        {
          "internalType": "string",
          "name": "_baseTokenURI",
          "type": "string"
        }
      ],
      "name": "createCollection",
      "outputs": [],
      "stateMutability": "nonpayable",
      "type": "function"
    },
    {
      "inputs": [
        {
          "internalType": "uint256",
          "name": "_collectionId",
          "type": "uint256"
        }
      ],
      "name": "getCollection",
      "outputs": [
        {
          "components": [
            {
              "internalType": "address",
              "name": "collectionAddress",
              "type": "address"
            },
            {
              "internalType": "uint256",
              "name": "price",
              "type": "uint256"
            },
            {
              "internalType": "string",
              "name": "name",
              "type": "string"
            },
            {
              "internalType": "string",
              "name": "URI",
              "type": "string"
            }
          ],
          "internalType": "struct NftClubStorage.Collection",
          "name": "",
          "type": "tuple"
        }
      ],
      "stateMutability": "view",
      "type": "function"
    },
    {
      "inputs": [],
      "name": "getCurrentCollections",
      "outputs": [
        {
          "components": [
            {
              "internalType": "address",
              "name": "collectionAddress",
              "type": "address"
            },
            {
              "internalType": "uint256",
              "name": "price",
              "type": "uint256"
            },
            {
              "internalType": "string",
              "name": "name",
              "type": "string"
            },
            {
              "internalType": "string",
              "name": "URI",
              "type": "string"
            }
          ],
          "internalType": "struct NftClubStorage.Collection[]",
          "name": "",
          "type": "tuple[]"
        }
      ],
      "stateMutability": "view",
      "type": "function"
    },
    {
      "inputs": [],
      "name": "getNextCollectionId",
      "outputs": [
        {
          "internalType": "uint256",
          "name": "",
          "type": "uint256"
        }
      ],
      "stateMutability": "view",
      "type": "function"
    },
    {
      "inputs": [],
      "name": "getOwner",
      "outputs": [
        {
          "internalType": "address",
          "name": "",
          "type": "address"
        }
      ],
      "stateMutability": "view",
      "type": "function"
    },
    {
      "inputs": [
        {
          "internalType": "uint256",
          "name": "_collectionId",
          "type": "uint256"
        },
        {
          "internalType": "address",
          "name": "_user",
          "type": "address"
        }
      ],
      "name": "verifyOwnership",
      "outputs": [
        {
          "internalType": "bool",
          "name": "",
          "type": "bool"
        }
      ],
      "stateMutability": "view",
      "type": "function"
    }
  ],
  "transactionHash": "0x0674a4018a0e9c190061d66d857d07695572e3858732bae28a8c78d4cd0ece42",
  "args": [],
  "numDeployments": 3,
  "solcInputHash": "1de09622a5b3cd71ac2c86151b27bc36",
  "bytecode": "0x608060405234801561001057600080fd5b50336000806101000a81548173ffffffffffffffffffffffffffffffffffffffff021916908373ffffffffffffffffffffffffffffffffffffffff160217905550613e6b806100606000396000f3fe608060405260043610620000865760003560e01c80635a1f3c2811620000555780635a1f3c28146200014f57806384ef9a181462000193578063893d20e814620001d7578063e267185614620002075762000086565b806309cc449d146200008b5780630a7dcc0714620000cf5780631cea913d14620000ff578063243adbdd146200012f575b600080fd5b3480156200009857600080fd5b50620000b76004803603810190620000b1919062000d50565b62000235565b604051620000c6919062000db4565b60405180910390f35b348015620000dc57600080fd5b50620000e7620002d9565b604051620000f6919062000de2565b60405180910390f35b3480156200010c57600080fd5b5062000117620002e3565b60405162000126919062000ffd565b60405180910390f35b6200014d600480360381019062000147919062001021565b620004d8565b005b3480156200015c57600080fd5b506200017b600480360381019062000175919062001021565b620006c0565b6040516200018a9190620010c5565b60405180910390f35b348015620001a057600080fd5b50620001bf6004803603810190620001b9919062000d50565b620008bf565b604051620001ce919062000db4565b60405180910390f35b348015620001e457600080fd5b50620001ef62000963565b604051620001fe9190620010fa565b60405180910390f35b3480156200021457600080fd5b506200023360048036038101906200022d919062001268565b6200098c565b005b6000600154831062000273576040517f0c2d789f00000000000000000000000000000000000000000000000000000000815260040160405180910390fd5b6003600084815260200190815260200160002060008373ffffffffffffffffffffffffffffffffffffffff1673ffffffffffffffffffffffffffffffffffffffff16815260200190815260200160002060009054906101000a900460ff16905092915050565b6000600154905090565b60606004805480602002602001604051908101604052809291908181526020016000905b82821015620004cf57838290600052602060002090600402016040518060800160405290816000820160009054906101000a900473ffffffffffffffffffffffffffffffffffffffff1673ffffffffffffffffffffffffffffffffffffffff1673ffffffffffffffffffffffffffffffffffffffff168152602001600182015481526020016002820180546200039d9062001366565b80601f0160208091040260200160405190810160405280929190818152602001828054620003cb9062001366565b80156200041c5780601f10620003f0576101008083540402835291602001916200041c565b820191906000526020600020905b815481529060010190602001808311620003fe57829003601f168201915b50505050508152602001600382018054620004379062001366565b80601f0160208091040260200160405190810160405280929190818152602001828054620004659062001366565b8015620004b65780601f106200048a57610100808354040283529160200191620004b6565b820191906000526020600020905b8154815290600101906020018083116200049857829003601f168201915b5050505050815250508152602001906001019062000307565b50505050905090565b600154811062000514576040517f0c2d789f00000000000000000000000000000000000000000000000000000000815260040160405180910390fd5b600260008281526020019081526020016000206001015434101562000565576040517fb18bc8f700000000000000000000000000000000000000000000000000000000815260040160405180910390fd5b60006002600083815260200190815260200160002060000160009054906101000a900473ffffffffffffffffffffffffffffffffffffffff1690508073ffffffffffffffffffffffffffffffffffffffff16636a627842336040518263ffffffff1660e01b8152600401620005db9190620010fa565b600060405180830381600087803b158015620005f657600080fd5b505af11580156200060b573d6000803e3d6000fd5b5050505060016003600084815260200190815260200160002060003373ffffffffffffffffffffffffffffffffffffffff1673ffffffffffffffffffffffffffffffffffffffff16815260200190815260200160002060006101000a81548160ff0219169083151502179055503373ffffffffffffffffffffffffffffffffffffffff16827f9697071bc08ed28bc23db7ef4cce0abeb5bc570b2a4c9ac79d4200b281d4c44660405160405180910390a35050565b620006ca62000c50565b600154821062000706576040517f38d82d2800000000000000000000000000000000000000000000000000000000815260040160405180910390fd5b600260008381526020019081526020016000206040518060800160405290816000820160009054906101000a900473ffffffffffffffffffffffffffffffffffffffff1673ffffffffffffffffffffffffffffffffffffffff1673ffffffffffffffffffffffffffffffffffffffff16815260200160018201548152602001600282018054620007969062001366565b80601f0160208091040260200160405190810160405280929190818152602001828054620007c49062001366565b8015620008155780601f10620007e95761010080835404028352916020019162000815565b820191906000526020600020905b815481529060010190602001808311620007f757829003601f168201915b50505050508152602001600382018054620008309062001366565b80601f01602080910402602001604051908101604052809291908181526020018280546200085e9062001366565b8015620008af5780601f106200088357610100808354040283529160200191620008af565b820191906000526020600020905b8154815290600101906020018083116200089157829003601f168201915b5050505050815250509050919050565b60006001548310620008fd576040517f38d82d2800000000000000000000000000000000000000000000000000000000815260040160405180910390fd5b6003600084815260200190815260200160002060008373ffffffffffffffffffffffffffffffffffffffff1673ffffffffffffffffffffffffffffffffffffffff16815260200190815260200160002060009054906101000a900460ff16905092915050565b60008060009054906101000a900473ffffffffffffffffffffffffffffffffffffffff16905090565b60008054906101000a900473ffffffffffffffffffffffffffffffffffffffff1673ffffffffffffffffffffffffffffffffffffffff163373ffffffffffffffffffffffffffffffffffffffff161462000a12576040517f4767ead100000000000000000000000000000000000000000000000000000000815260040160405180910390fd5b60006001549050600085858460405162000a2c9062000c8e565b62000a3a93929190620013ed565b604051809103906000f08015801562000a57573d6000803e3d6000fd5b509050600060405180608001604052808373ffffffffffffffffffffffffffffffffffffffff168152602001868152602001888152602001858152509050806002600085815260200190815260200160002060008201518160000160006101000a81548173ffffffffffffffffffffffffffffffffffffffff021916908373ffffffffffffffffffffffffffffffffffffffff16021790555060208201518160010155604082015181600201908162000b11919062001611565b50606082015181600301908162000b29919062001611565b50905050600481908060018154018082558091505060019003906000526020600020906004020160009091909190915060008201518160000160006101000a81548173ffffffffffffffffffffffffffffffffffffffff021916908373ffffffffffffffffffffffffffffffffffffffff16021790555060208201518160010155604082015181600201908162000bc1919062001611565b50606082015181600301908162000bd9919062001611565b5050508173ffffffffffffffffffffffffffffffffffffffff16837fb0b7b214963f2e16da9cf6ed5851757dfed306875edf1d59e030881102ef24ef8660405162000c259190620016f8565b60405180910390a36001600081548092919062000c42906200174b565b919050555050505050505050565b6040518060800160405280600073ffffffffffffffffffffffffffffffffffffffff1681526020016000815260200160608152602001606081525090565b61269d806200179983390190565b6000604051905090565b600080fd5b600080fd5b6000819050919050565b62000cc58162000cb0565b811462000cd157600080fd5b50565b60008135905062000ce58162000cba565b92915050565b600073ffffffffffffffffffffffffffffffffffffffff82169050919050565b600062000d188262000ceb565b9050919050565b62000d2a8162000d0b565b811462000d3657600080fd5b50565b60008135905062000d4a8162000d1f565b92915050565b6000806040838503121562000d6a5762000d6962000ca6565b5b600062000d7a8582860162000cd4565b925050602062000d8d8582860162000d39565b9150509250929050565b60008115159050919050565b62000dae8162000d97565b82525050565b600060208201905062000dcb600083018462000da3565b92915050565b62000ddc8162000cb0565b82525050565b600060208201905062000df9600083018462000dd1565b92915050565b600081519050919050565b600082825260208201905092915050565b6000819050602082019050919050565b62000e368162000d0b565b82525050565b62000e478162000cb0565b82525050565b600081519050919050565b600082825260208201905092915050565b60005b8381101562000e8957808201518184015260208101905062000e6c565b60008484015250505050565b6000601f19601f8301169050919050565b600062000eb38262000e4d565b62000ebf818562000e58565b935062000ed181856020860162000e69565b62000edc8162000e95565b840191505092915050565b600060808301600083015162000f01600086018262000e2b565b50602083015162000f16602086018262000e3c565b506040830151848203604086015262000f30828262000ea6565b9150506060830151848203606086015262000f4c828262000ea6565b9150508091505092915050565b600062000f67838362000ee7565b905092915050565b6000602082019050919050565b600062000f898262000dff565b62000f95818562000e0a565b93508360208202850162000fa98562000e1b565b8060005b8581101562000feb578484038952815162000fc9858262000f59565b945062000fd68362000f6f565b925060208a0199505060018101905062000fad565b50829750879550505050505092915050565b6000602082019050818103600083015262001019818462000f7c565b905092915050565b6000602082840312156200103a576200103962000ca6565b5b60006200104a8482850162000cd4565b91505092915050565b60006080830160008301516200106d600086018262000e2b565b50602083015162001082602086018262000e3c565b50604083015184820360408601526200109c828262000ea6565b91505060608301518482036060860152620010b8828262000ea6565b9150508091505092915050565b60006020820190508181036000830152620010e1818462001053565b905092915050565b620010f48162000d0b565b82525050565b6000602082019050620011116000830184620010e9565b92915050565b600080fd5b600080fd5b7f4e487b7100000000000000000000000000000000000000000000000000000000600052604160045260246000fd5b6200115b8262000e95565b810181811067ffffffffffffffff821117156200117d576200117c62001121565b5b80604052505050565b60006200119262000c9c565b9050620011a0828262001150565b919050565b600067ffffffffffffffff821115620011c357620011c262001121565b5b620011ce8262000e95565b9050602081019050919050565b82818337600083830152505050565b600062001201620011fb84620011a5565b62001186565b90508281526020810184848401111562001220576200121f6200111c565b5b6200122d848285620011db565b509392505050565b600082601f8301126200124d576200124c62001117565b5b81356200125f848260208601620011ea565b91505092915050565b6000806000806080858703121562001285576200128462000ca6565b5b600085013567ffffffffffffffff811115620012a657620012a562000cab565b5b620012b48782880162001235565b945050602085013567ffffffffffffffff811115620012d857620012d762000cab565b5b620012e68782880162001235565b9350506040620012f98782880162000cd4565b925050606085013567ffffffffffffffff8111156200131d576200131c62000cab565b5b6200132b8782880162001235565b91505092959194509250565b7f4e487b7100000000000000000000000000000000000000000000000000000000600052602260045260246000fd5b600060028204905060018216806200137f57607f821691505b60208210810362001395576200139462001337565b5b50919050565b600082825260208201905092915050565b6000620013b98262000e4d565b620013c581856200139b565b9350620013d781856020860162000e69565b620013e28162000e95565b840191505092915050565b60006060820190508181036000830152620014098186620013ac565b905081810360208301526200141f8185620013ac565b90508181036040830152620014358184620013ac565b9050949350505050565b60008190508160005260206000209050919050565b60006020601f8301049050919050565b600082821b905092915050565b600060088302620014a37fffffffffffffffffffffffffffffffffffffffffffffffffffffffffffffffff8262001464565b620014af868362001464565b95508019841693508086168417925050509392505050565b6000819050919050565b6000620014f2620014ec620014e68462000cb0565b620014c7565b62000cb0565b9050919050565b6000819050919050565b6200150e83620014d1565b620015266200151d82620014f9565b84845462001471565b825550505050565b600090565b6200153d6200152e565b6200154a81848462001503565b505050565b5b8181101562001572576200156660008262001533565b60018101905062001550565b5050565b601f821115620015c1576200158b816200143f565b620015968462001454565b81016020851015620015a6578190505b620015be620015b58562001454565b8301826200154f565b50505b505050565b600082821c905092915050565b6000620015e660001984600802620015c6565b1980831691505092915050565b6000620016018383620015d3565b9150826002028217905092915050565b6200161c8262000e4d565b67ffffffffffffffff81111562001638576200163762001121565b5b62001644825462001366565b6200165182828562001576565b600060209050601f83116001811462001689576000841562001674578287015190505b620016808582620015f3565b865550620016f0565b601f19841662001699866200143f565b60005b82811015620016c3578489015182556001820191506020850194506020810190506200169c565b86831015620016e35784890151620016df601f891682620015d3565b8355505b6001600288020188555050505b505050505050565b60006020820190508181036000830152620017148184620013ac565b905092915050565b7f4e487b7100000000000000000000000000000000000000000000000000000000600052601160045260246000fd5b6000620017588262000cb0565b91507fffffffffffffffffffffffffffffffffffffffffffffffffffffffffffffffff82036200178d576200178c6200171c565b5b60018201905091905056fe60806040523480156200001157600080fd5b506040516200269d3803806200269d83398181016040528101906200003791906200024e565b828281600090816200004a919062000552565b5080600190816200005c919062000552565b50505033600760006101000a81548173ffffffffffffffffffffffffffffffffffffffff021916908373ffffffffffffffffffffffffffffffffffffffff1602179055508060089081620000b1919062000552565b5050505062000639565b6000604051905090565b600080fd5b600080fd5b600080fd5b600080fd5b6000601f19601f8301169050919050565b7f4e487b7100000000000000000000000000000000000000000000000000000000600052604160045260246000fd5b6200012482620000d9565b810181811067ffffffffffffffff82111715620001465762000145620000ea565b5b80604052505050565b60006200015b620000bb565b905062000169828262000119565b919050565b600067ffffffffffffffff8211156200018c576200018b620000ea565b5b6200019782620000d9565b9050602081019050919050565b60005b83811015620001c4578082015181840152602081019050620001a7565b60008484015250505050565b6000620001e7620001e1846200016e565b6200014f565b905082815260208101848484011115620002065762000205620000d4565b5b62000213848285620001a4565b509392505050565b600082601f830112620002335762000232620000cf565b5b815162000245848260208601620001d0565b91505092915050565b6000806000606084860312156200026a5762000269620000c5565b5b600084015167ffffffffffffffff8111156200028b576200028a620000ca565b5b62000299868287016200021b565b935050602084015167ffffffffffffffff811115620002bd57620002bc620000ca565b5b620002cb868287016200021b565b925050604084015167ffffffffffffffff811115620002ef57620002ee620000ca565b5b620002fd868287016200021b565b9150509250925092565b600081519050919050565b7f4e487b7100000000000000000000000000000000000000000000000000000000600052602260045260246000fd5b600060028204905060018216806200035a57607f821691505b60208210810362000370576200036f62000312565b5b50919050565b60008190508160005260206000209050919050565b60006020601f8301049050919050565b600082821b905092915050565b600060088302620003da7fffffffffffffffffffffffffffffffffffffffffffffffffffffffffffffffff826200039b565b620003e686836200039b565b95508019841693508086168417925050509392505050565b6000819050919050565b6000819050919050565b6000620004336200042d6200042784620003fe565b62000408565b620003fe565b9050919050565b6000819050919050565b6200044f8362000412565b620004676200045e826200043a565b848454620003a8565b825550505050565b600090565b6200047e6200046f565b6200048b81848462000444565b505050565b5b81811015620004b357620004a760008262000474565b60018101905062000491565b5050565b601f8211156200050257620004cc8162000376565b620004d7846200038b565b81016020851015620004e7578190505b620004ff620004f6856200038b565b83018262000490565b50505b505050565b600082821c905092915050565b6000620005276000198460080262000507565b1980831691505092915050565b600062000542838362000514565b9150826002028217905092915050565b6200055d8262000307565b67ffffffffffffffff811115620005795762000578620000ea565b5b62000585825462000341565b62000592828285620004b7565b600060209050601f831160018114620005ca5760008415620005b5578287015190505b620005c1858262000534565b86555062000631565b601f198416620005da8662000376565b60005b828110156200060457848901518255600182019150602085019450602081019050620005dd565b8683101562000624578489015162000620601f89168262000514565b8355505b6001600288020188555050505b505050505050565b61205480620006496000396000f3fe608060405234801561001057600080fd5b50600436106101005760003560e01c80636352211e11610097578063a22cb46511610066578063a22cb465146102ad578063b88d4fde146102c9578063c87b56dd146102e5578063e985e9c51461031557610100565b80636352211e146102135780636a6278421461024357806370a082311461025f57806395d89b411461028f57610100565b8063132788cf116100d3578063132788cf1461019f57806323b872dd146101bd5780633ee3af9a146101d957806342842e0e146101f757610100565b806301ffc9a71461010557806306fdde0314610135578063081812fc14610153578063095ea7b314610183575b600080fd5b61011f600480360381019061011a9190611827565b610345565b60405161012c919061186f565b60405180910390f35b61013d610427565b60405161014a919061191a565b60405180910390f35b61016d60048036038101906101689190611972565b6104b9565b60405161017a91906119e0565b60405180910390f35b61019d60048036038101906101989190611a27565b6104d5565b005b6101a76104eb565b6040516101b491906119e0565b60405180910390f35b6101d760048036038101906101d29190611a67565b610511565b005b6101e1610613565b6040516101ee9190611ac9565b60405180910390f35b610211600480360381019061020c9190611a67565b610619565b005b61022d60048036038101906102289190611972565b610639565b60405161023a91906119e0565b60405180910390f35b61025d60048036038101906102589190611ae4565b61064b565b005b61027960048036038101906102749190611ae4565b610749565b6040516102869190611ac9565b60405180910390f35b610297610803565b6040516102a4919061191a565b60405180910390f35b6102c760048036038101906102c29190611b3d565b610895565b005b6102e360048036038101906102de9190611cb2565b6108ab565b005b6102ff60048036038101906102fa9190611972565b6108c8565b60405161030c919061191a565b60405180910390f35b61032f600480360381019061032a9190611d35565b610931565b60405161033c919061186f565b60405180910390f35b60007f80ac58cd000000000000000000000000000000000000000000000000000000007bffffffffffffffffffffffffffffffffffffffffffffffffffffffff1916827bffffffffffffffffffffffffffffffffffffffffffffffffffffffff1916148061041057507f5b5e139f000000000000000000000000000000000000000000000000000000007bffffffffffffffffffffffffffffffffffffffffffffffffffffffff1916827bffffffffffffffffffffffffffffffffffffffffffffffffffffffff1916145b80610420575061041f826109c5565b5b9050919050565b60606000805461043690611da4565b80601f016020809104026020016040519081016040528092919081815260200182805461046290611da4565b80156104af5780601f10610484576101008083540402835291602001916104af565b820191906000526020600020905b81548152906001019060200180831161049257829003601f168201915b5050505050905090565b60006104c482610a2f565b506104ce82610ab7565b9050919050565b6104e782826104e2610af4565b610afc565b5050565b600760009054906101000a900473ffffffffffffffffffffffffffffffffffffffff1681565b600073ffffffffffffffffffffffffffffffffffffffff168273ffffffffffffffffffffffffffffffffffffffff16036105835760006040517f64a0ae9200000000000000000000000000000000000000000000000000000000815260040161057a91906119e0565b60405180910390fd5b60006105978383610592610af4565b610b0e565b90508373ffffffffffffffffffffffffffffffffffffffff168173ffffffffffffffffffffffffffffffffffffffff161461060d578382826040517f64283d7b00000000000000000000000000000000000000000000000000000000815260040161060493929190611dd5565b60405180910390fd5b50505050565b60065481565b610634838383604051806020016040528060008152506108ab565b505050565b600061064482610a2f565b9050919050565b600760009054906101000a900473ffffffffffffffffffffffffffffffffffffffff1673ffffffffffffffffffffffffffffffffffffffff163373ffffffffffffffffffffffffffffffffffffffff16146106d2576040517f91f6598400000000000000000000000000000000000000000000000000000000815260040160405180910390fd5b6106de81600654610d28565b8073ffffffffffffffffffffffffffffffffffffffff167fb9144c96c86541f6fa89c9f2f02495cccf4b08cd6643e26d34ee00aa586558a86006546040516107269190611ac9565b60405180910390a26006600081548092919061074190611e3b565b919050555050565b60008073ffffffffffffffffffffffffffffffffffffffff168273ffffffffffffffffffffffffffffffffffffffff16036107bc5760006040517f89c62b640000000000000000000000000000000000000000000000000000000081526004016107b391906119e0565b60405180910390fd5b600360008373ffffffffffffffffffffffffffffffffffffffff1673ffffffffffffffffffffffffffffffffffffffff168152602001908152602001600020549050919050565b60606001805461081290611da4565b80601f016020809104026020016040519081016040528092919081815260200182805461083e90611da4565b801561088b5780601f106108605761010080835404028352916020019161088b565b820191906000526020600020905b81548152906001019060200180831161086e57829003601f168201915b5050505050905090565b6108a76108a0610af4565b8383610d46565b5050565b6108b6848484610511565b6108c284848484610eb5565b50505050565b60606108d382610a2f565b5060006108de61106c565b905060008151116108fe5760405180602001604052806000815250610929565b80610908846110fe565b604051602001610919929190611ebf565b6040516020818303038152906040525b915050919050565b6000600560008473ffffffffffffffffffffffffffffffffffffffff1673ffffffffffffffffffffffffffffffffffffffff16815260200190815260200160002060008373ffffffffffffffffffffffffffffffffffffffff1673ffffffffffffffffffffffffffffffffffffffff16815260200190815260200160002060009054906101000a900460ff16905092915050565b60007f01ffc9a7000000000000000000000000000000000000000000000000000000007bffffffffffffffffffffffffffffffffffffffffffffffffffffffff1916827bffffffffffffffffffffffffffffffffffffffffffffffffffffffff1916149050919050565b600080610a3b836111cc565b9050600073ffffffffffffffffffffffffffffffffffffffff168173ffffffffffffffffffffffffffffffffffffffff1603610aae57826040517f7e273289000000000000000000000000000000000000000000000000000000008152600401610aa59190611ac9565b60405180910390fd5b80915050919050565b60006004600083815260200190815260200160002060009054906101000a900473ffffffffffffffffffffffffffffffffffffffff169050919050565b600033905090565b610b098383836001611209565b505050565b600080610b1a846111cc565b9050600073ffffffffffffffffffffffffffffffffffffffff168373ffffffffffffffffffffffffffffffffffffffff1614610b5c57610b5b8184866113ce565b5b600073ffffffffffffffffffffffffffffffffffffffff168173ffffffffffffffffffffffffffffffffffffffff1614610bed57610b9e600085600080611209565b6001600360008373ffffffffffffffffffffffffffffffffffffffff1673ffffffffffffffffffffffffffffffffffffffff168152602001908152602001600020600082825403925050819055505b600073ffffffffffffffffffffffffffffffffffffffff168573ffffffffffffffffffffffffffffffffffffffff1614610c70576001600360008773ffffffffffffffffffffffffffffffffffffffff1673ffffffffffffffffffffffffffffffffffffffff168152602001908152602001600020600082825401925050819055505b846002600086815260200190815260200160002060006101000a81548173ffffffffffffffffffffffffffffffffffffffff021916908373ffffffffffffffffffffffffffffffffffffffff160217905550838573ffffffffffffffffffffffffffffffffffffffff168273ffffffffffffffffffffffffffffffffffffffff167fddf252ad1be2c89b69c2b068fc378daa952ba7f163c4a11628f55a4df523b3ef60405160405180910390a4809150509392505050565b610d42828260405180602001604052806000815250611492565b5050565b600073ffffffffffffffffffffffffffffffffffffffff168273ffffffffffffffffffffffffffffffffffffffff1603610db757816040517f5b08ba18000000000000000000000000000000000000000000000000000000008152600401610dae91906119e0565b60405180910390fd5b80600560008573ffffffffffffffffffffffffffffffffffffffff1673ffffffffffffffffffffffffffffffffffffffff16815260200190815260200160002060008473ffffffffffffffffffffffffffffffffffffffff1673ffffffffffffffffffffffffffffffffffffffff16815260200190815260200160002060006101000a81548160ff0219169083151502179055508173ffffffffffffffffffffffffffffffffffffffff168373ffffffffffffffffffffffffffffffffffffffff167f17307eab39ab6107e8899845ad3d59bd9653f200f220920489ca2b5937696c3183604051610ea8919061186f565b60405180910390a3505050565b60008373ffffffffffffffffffffffffffffffffffffffff163b1115611066578273ffffffffffffffffffffffffffffffffffffffff1663150b7a02610ef9610af4565b8685856040518563ffffffff1660e01b8152600401610f1b9493929190611f38565b6020604051808303816000875af1925050508015610f5757506040513d601f19601f82011682018060405250810190610f549190611f99565b60015b610fdb573d8060008114610f87576040519150601f19603f3d011682016040523d82523d6000602084013e610f8c565b606091505b506000815103610fd357836040517f64a0ae92000000000000000000000000000000000000000000000000000000008152600401610fca91906119e0565b60405180910390fd5b805181602001fd5b63150b7a0260e01b7bffffffffffffffffffffffffffffffffffffffffffffffffffffffff1916817bffffffffffffffffffffffffffffffffffffffffffffffffffffffff19161461106457836040517f64a0ae9200000000000000000000000000000000000000000000000000000000815260040161105b91906119e0565b60405180910390fd5b505b50505050565b60606008805461107b90611da4565b80601f01602080910402602001604051908101604052809291908181526020018280546110a790611da4565b80156110f45780601f106110c9576101008083540402835291602001916110f4565b820191906000526020600020905b8154815290600101906020018083116110d757829003601f168201915b5050505050905090565b60606000600161110d846114ae565b01905060008167ffffffffffffffff81111561112c5761112b611b87565b5b6040519080825280601f01601f19166020018201604052801561115e5781602001600182028036833780820191505090505b509050600082602001820190505b6001156111c1578080600190039150507f3031323334353637383961626364656600000000000000000000000000000000600a86061a8153600a85816111b5576111b4611fc6565b5b0494506000850361116c575b819350505050919050565b60006002600083815260200190815260200160002060009054906101000a900473ffffffffffffffffffffffffffffffffffffffff169050919050565b80806112425750600073ffffffffffffffffffffffffffffffffffffffff168273ffffffffffffffffffffffffffffffffffffffff1614155b1561137657600061125284610a2f565b9050600073ffffffffffffffffffffffffffffffffffffffff168373ffffffffffffffffffffffffffffffffffffffff16141580156112bd57508273ffffffffffffffffffffffffffffffffffffffff168173ffffffffffffffffffffffffffffffffffffffff1614155b80156112d057506112ce8184610931565b155b1561131257826040517fa9fbf51f00000000000000000000000000000000000000000000000000000000815260040161130991906119e0565b60405180910390fd5b811561137457838573ffffffffffffffffffffffffffffffffffffffff168273ffffffffffffffffffffffffffffffffffffffff167f8c5be1e5ebec7d5bd14f71427d1e84f3dd0314c0f7b2291e5b200ac8c7c3b92560405160405180910390a45b505b836004600085815260200190815260200160002060006101000a81548173ffffffffffffffffffffffffffffffffffffffff021916908373ffffffffffffffffffffffffffffffffffffffff16021790555050505050565b6113d9838383611601565b61148d57600073ffffffffffffffffffffffffffffffffffffffff168373ffffffffffffffffffffffffffffffffffffffff160361144e57806040517f7e2732890000000000000000000000000000000000000000000000000000000081526004016114459190611ac9565b60405180910390fd5b81816040517f177e802f000000000000000000000000000000000000000000000000000000008152600401611484929190611ff5565b60405180910390fd5b505050565b61149c83836116c2565b6114a96000848484610eb5565b505050565b600080600090507a184f03e93ff9f4daa797ed6e38ed64bf6a1f010000000000000000831061150c577a184f03e93ff9f4daa797ed6e38ed64bf6a1f010000000000000000838161150257611501611fc6565b5b0492506040810190505b6d04ee2d6d415b85acef81000000008310611549576d04ee2d6d415b85acef8100000000838161153f5761153e611fc6565b5b0492506020810190505b662386f26fc10000831061157857662386f26fc10000838161156e5761156d611fc6565b5b0492506010810190505b6305f5e10083106115a1576305f5e100838161159757611596611fc6565b5b0492506008810190505b61271083106115c65761271083816115bc576115bb611fc6565b5b0492506004810190505b606483106115e957606483816115df576115de611fc6565b5b0492506002810190505b600a83106115f8576001810190505b80915050919050565b60008073ffffffffffffffffffffffffffffffffffffffff168373ffffffffffffffffffffffffffffffffffffffff16141580156116b957508273ffffffffffffffffffffffffffffffffffffffff168473ffffffffffffffffffffffffffffffffffffffff16148061167a57506116798484610931565b5b806116b857508273ffffffffffffffffffffffffffffffffffffffff166116a083610ab7565b73ffffffffffffffffffffffffffffffffffffffff16145b5b90509392505050565b600073ffffffffffffffffffffffffffffffffffffffff168273ffffffffffffffffffffffffffffffffffffffff16036117345760006040517f64a0ae9200000000000000000000000000000000000000000000000000000000815260040161172b91906119e0565b60405180910390fd5b600061174283836000610b0e565b9050600073ffffffffffffffffffffffffffffffffffffffff168173ffffffffffffffffffffffffffffffffffffffff16146117b65760006040517f73c6ac6e0000000000000000000000000000000000000000000000000000000081526004016117ad91906119e0565b60405180910390fd5b505050565b6000604051905090565b600080fd5b600080fd5b60007fffffffff0000000000000000000000000000000000000000000000000000000082169050919050565b611804816117cf565b811461180f57600080fd5b50565b600081359050611821816117fb565b92915050565b60006020828403121561183d5761183c6117c5565b5b600061184b84828501611812565b91505092915050565b60008115159050919050565b61186981611854565b82525050565b60006020820190506118846000830184611860565b92915050565b600081519050919050565b600082825260208201905092915050565b60005b838110156118c45780820151818401526020810190506118a9565b60008484015250505050565b6000601f19601f8301169050919050565b60006118ec8261188a565b6118f68185611895565b93506119068185602086016118a6565b61190f816118d0565b840191505092915050565b6000602082019050818103600083015261193481846118e1565b905092915050565b6000819050919050565b61194f8161193c565b811461195a57600080fd5b50565b60008135905061196c81611946565b92915050565b600060208284031215611988576119876117c5565b5b60006119968482850161195d565b91505092915050565b600073ffffffffffffffffffffffffffffffffffffffff82169050919050565b60006119ca8261199f565b9050919050565b6119da816119bf565b82525050565b60006020820190506119f560008301846119d1565b92915050565b611a04816119bf565b8114611a0f57600080fd5b50565b600081359050611a21816119fb565b92915050565b60008060408385031215611a3e57611a3d6117c5565b5b6000611a4c85828601611a12565b9250506020611a5d8582860161195d565b9150509250929050565b600080600060608486031215611a8057611a7f6117c5565b5b6000611a8e86828701611a12565b9350506020611a9f86828701611a12565b9250506040611ab08682870161195d565b9150509250925092565b611ac38161193c565b82525050565b6000602082019050611ade6000830184611aba565b92915050565b600060208284031215611afa57611af96117c5565b5b6000611b0884828501611a12565b91505092915050565b611b1a81611854565b8114611b2557600080fd5b50565b600081359050611b3781611b11565b92915050565b60008060408385031215611b5457611b536117c5565b5b6000611b6285828601611a12565b9250506020611b7385828601611b28565b9150509250929050565b600080fd5b600080fd5b7f4e487b7100000000000000000000000000000000000000000000000000000000600052604160045260246000fd5b611bbf826118d0565b810181811067ffffffffffffffff82111715611bde57611bdd611b87565b5b80604052505050565b6000611bf16117bb565b9050611bfd8282611bb6565b919050565b600067ffffffffffffffff821115611c1d57611c1c611b87565b5b611c26826118d0565b9050602081019050919050565b82818337600083830152505050565b6000611c55611c5084611c02565b611be7565b905082815260208101848484011115611c7157611c70611b82565b5b611c7c848285611c33565b509392505050565b600082601f830112611c9957611c98611b7d565b5b8135611ca9848260208601611c42565b91505092915050565b60008060008060808587031215611ccc57611ccb6117c5565b5b6000611cda87828801611a12565b9450506020611ceb87828801611a12565b9350506040611cfc8782880161195d565b925050606085013567ffffffffffffffff811115611d1d57611d1c6117ca565b5b611d2987828801611c84565b91505092959194509250565b60008060408385031215611d4c57611d4b6117c5565b5b6000611d5a85828601611a12565b9250506020611d6b85828601611a12565b9150509250929050565b7f4e487b7100000000000000000000000000000000000000000000000000000000600052602260045260246000fd5b60006002820490506001821680611dbc57607f821691505b602082108103611dcf57611dce611d75565b5b50919050565b6000606082019050611dea60008301866119d1565b611df76020830185611aba565b611e0460408301846119d1565b949350505050565b7f4e487b7100000000000000000000000000000000000000000000000000000000600052601160045260246000fd5b6000611e468261193c565b91507fffffffffffffffffffffffffffffffffffffffffffffffffffffffffffffffff8203611e7857611e77611e0c565b5b600182019050919050565b600081905092915050565b6000611e998261188a565b611ea38185611e83565b9350611eb38185602086016118a6565b80840191505092915050565b6000611ecb8285611e8e565b9150611ed78284611e8e565b91508190509392505050565b600081519050919050565b600082825260208201905092915050565b6000611f0a82611ee3565b611f148185611eee565b9350611f248185602086016118a6565b611f2d816118d0565b840191505092915050565b6000608082019050611f4d60008301876119d1565b611f5a60208301866119d1565b611f676040830185611aba565b8181036060830152611f798184611eff565b905095945050505050565b600081519050611f93816117fb565b92915050565b600060208284031215611faf57611fae6117c5565b5b6000611fbd84828501611f84565b91505092915050565b7f4e487b7100000000000000000000000000000000000000000000000000000000600052601260045260246000fd5b600060408201905061200a60008301856119d1565b6120176020830184611aba565b939250505056fea2646970667358221220d189c4f56de7088429eaff80a1e7b9bdb1550455b7cee6d5d80e71ed8974094d64736f6c63430008140033a264697066735822122072551998036805ebc2d5a303b1da0391b4ae08496d52502a9978f38bc63121fb64736f6c63430008140033",
  "devdoc": {
    "kind": "dev",
    "methods": {},
    "version": 1
  },
  "userdoc": {
    "kind": "user",
    "methods": {},
    "version": 1
  },
  "storageLayout": {
    "storage": [
      {
        "astId": 3136,
        "contract": "contracts/NftClub.sol:NftClub",
        "label": "s_owner",
        "offset": 0,
        "slot": "0",
        "type": "t_address"
      },
      {
        "astId": 3138,
        "contract": "contracts/NftClub.sol:NftClub",
        "label": "s_nextCollectionId",
        "offset": 0,
        "slot": "1",
        "type": "t_uint256"
      },
      {
        "astId": 3143,
        "contract": "contracts/NftClub.sol:NftClub",
        "label": "s_collections",
        "offset": 0,
        "slot": "2",
        "type": "t_mapping(t_uint256,t_struct(Collection)3134_storage)"
      },
      {
        "astId": 3149,
        "contract": "contracts/NftClub.sol:NftClub",
        "label": "s_nftOwners",
        "offset": 0,
        "slot": "3",
        "type": "t_mapping(t_uint256,t_mapping(t_address,t_bool))"
      },
      {
        "astId": 3153,
        "contract": "contracts/NftClub.sol:NftClub",
        "label": "s_currentCollections",
        "offset": 0,
        "slot": "4",
        "type": "t_array(t_struct(Collection)3134_storage)dyn_storage"
      }
    ],
    "types": {
      "t_address": {
        "encoding": "inplace",
        "label": "address",
        "numberOfBytes": "20"
      },
      "t_array(t_struct(Collection)3134_storage)dyn_storage": {
        "base": "t_struct(Collection)3134_storage",
        "encoding": "dynamic_array",
        "label": "struct NftClubStorage.Collection[]",
        "numberOfBytes": "32"
      },
      "t_bool": {
        "encoding": "inplace",
        "label": "bool",
        "numberOfBytes": "1"
      },
      "t_mapping(t_address,t_bool)": {
        "encoding": "mapping",
        "key": "t_address",
        "label": "mapping(address => bool)",
        "numberOfBytes": "32",
        "value": "t_bool"
      },
      "t_mapping(t_uint256,t_mapping(t_address,t_bool))": {
        "encoding": "mapping",
        "key": "t_uint256",
        "label": "mapping(uint256 => mapping(address => bool))",
        "numberOfBytes": "32",
        "value": "t_mapping(t_address,t_bool)"
      },
      "t_mapping(t_uint256,t_struct(Collection)3134_storage)": {
        "encoding": "mapping",
        "key": "t_uint256",
        "label": "mapping(uint256 => struct NftClubStorage.Collection)",
        "numberOfBytes": "32",
        "value": "t_struct(Collection)3134_storage"
      },
      "t_string_storage": {
        "encoding": "bytes",
        "label": "string",
        "numberOfBytes": "32"
      },
      "t_struct(Collection)3134_storage": {
        "encoding": "inplace",
        "label": "struct NftClubStorage.Collection",
        "members": [
          {
            "astId": 3127,
            "contract": "contracts/NftClub.sol:NftClub",
            "label": "collectionAddress",
            "offset": 0,
            "slot": "0",
            "type": "t_address"
          },
          {
            "astId": 3129,
            "contract": "contracts/NftClub.sol:NftClub",
            "label": "price",
            "offset": 0,
            "slot": "1",
            "type": "t_uint256"
          },
          {
            "astId": 3131,
            "contract": "contracts/NftClub.sol:NftClub",
            "label": "name",
            "offset": 0,
            "slot": "2",
            "type": "t_string_storage"
          },
          {
            "astId": 3133,
            "contract": "contracts/NftClub.sol:NftClub",
            "label": "URI",
            "offset": 0,
            "slot": "3",
            "type": "t_string_storage"
          }
        ],
        "numberOfBytes": "128"
      },
      "t_uint256": {
        "encoding": "inplace",
        "label": "uint256",
        "numberOfBytes": "32"
      }
    }
  }
}